{
  "_format": "hh-sol-artifact-1",
  "contractName": "Escrow",
  "sourceName": "contracts/Escrow.sol",
  "abi": [
    {
      "inputs": [],
      "stateMutability": "nonpayable",
      "type": "constructor"
    },
    {
      "inputs": [],
      "name": "InvalidInitialization",
      "type": "error"
    },
    {
      "inputs": [],
      "name": "NotInitializing",
      "type": "error"
    },
    {
      "anonymous": false,
      "inputs": [
        {
          "indexed": false,
          "internalType": "uint256",
          "name": "loanId",
          "type": "uint256"
        },
        {
          "indexed": false,
          "internalType": "address",
          "name": "asset",
          "type": "address"
        },
        {
          "indexed": false,
          "internalType": "uint256",
          "name": "assetTokenId",
          "type": "uint256"
        }
      ],
      "name": "EscrowDeposit",
      "type": "event"
    },
    {
      "anonymous": false,
      "inputs": [
        {
          "indexed": false,
          "internalType": "uint256",
          "name": "loanId",
          "type": "uint256"
        },
        {
          "indexed": false,
          "internalType": "address",
          "name": "asset",
          "type": "address"
        },
        {
          "indexed": false,
          "internalType": "uint256",
          "name": "assetTokenId",
          "type": "uint256"
        },
        {
          "indexed": false,
          "internalType": "address",
          "name": "to",
          "type": "address"
        }
      ],
      "name": "EscrowRelease",
      "type": "event"
    },
    {
      "anonymous": false,
      "inputs": [
        {
          "indexed": false,
          "internalType": "uint64",
          "name": "version",
          "type": "uint64"
        }
      ],
      "name": "Initialized",
      "type": "event"
    },
    {
      "inputs": [
        {
          "internalType": "uint256",
          "name": "loanId",
          "type": "uint256"
        },
        {
          "internalType": "address",
          "name": "asset",
          "type": "address"
        },
        {
          "internalType": "uint256",
          "name": "assetTokenId",
          "type": "uint256"
        },
        {
          "internalType": "address",
          "name": "from",
          "type": "address"
        }
      ],
      "name": "depositToEscrow",
      "outputs": [],
      "stateMutability": "nonpayable",
      "type": "function"
    },
    {
      "inputs": [
        {
          "internalType": "address",
          "name": "_market",
          "type": "address"
        }
      ],
      "name": "initialize",
      "outputs": [],
      "stateMutability": "nonpayable",
      "type": "function"
    },
    {
      "inputs": [],
      "name": "market",
      "outputs": [
        {
          "internalType": "address",
          "name": "",
          "type": "address"
        }
      ],
      "stateMutability": "view",
      "type": "function"
    },
    {
      "inputs": [
        {
          "internalType": "address",
          "name": "",
          "type": "address"
        },
        {
          "internalType": "address",
          "name": "",
          "type": "address"
        },
        {
          "internalType": "uint256",
          "name": "",
          "type": "uint256"
        },
        {
          "internalType": "bytes",
          "name": "",
          "type": "bytes"
        }
      ],
      "name": "onERC721Received",
      "outputs": [
        {
          "internalType": "bytes4",
          "name": "",
          "type": "bytes4"
        }
      ],
      "stateMutability": "nonpayable",
      "type": "function"
    },
    {
      "inputs": [
        {
          "internalType": "uint256",
          "name": "loanId",
          "type": "uint256"
        },
        {
          "internalType": "address",
          "name": "asset",
          "type": "address"
        },
        {
          "internalType": "uint256",
          "name": "assetTokenId",
          "type": "uint256"
        },
        {
          "internalType": "address",
          "name": "to",
          "type": "address"
        }
      ],
      "name": "releaseFromEscrow",
      "outputs": [],
      "stateMutability": "nonpayable",
      "type": "function"
    }
  ],
  "bytecode": "0x608060405234801561001057600080fd5b5061001961001e565b6100d0565b7ff0c57e16840df040f15088dc2f81fe391c3923bec73e23a9662efc9c229c6a00805468010000000000000000900460ff161561006e5760405163f92ee8a960e01b815260040160405180910390fd5b80546001600160401b03908116146100cd5780546001600160401b0319166001600160401b0390811782556040519081527fc7f505b2f371ae2175ee4913f4499e1f2633a7b5936321eed1cdaeb6115181d29060200160405180910390a15b50565b610839806100df6000396000f3fe608060405234801561001057600080fd5b50600436106100575760003560e01c8063150b7a021461005c57806364dd7c041461009857806380f55605146100ad578063bfb3fd5b146100d8578063c4d66de8146100eb575b600080fd5b61007a61006a3660046106bf565b630a85bd0160e11b949350505050565b6040516001600160e01b031990911681526020015b60405180910390f35b6100ab6100a636600461079b565b6100fe565b005b6001546100c0906001600160a01b031681565b6040516001600160a01b03909116815260200161008f565b6100ab6100e636600461079b565b61032c565b6100ab6100f93660046107e1565b6104ba565b6001546001600160a01b0316331461014a5760405162461bcd60e51b815260206004820152600a6024820152691b9bdd081b585c9ad95d60b21b60448201526064015b60405180910390fd5b6001600160a01b0381166101975760405162461bcd60e51b8152602060048201526014602482015273496e76616c69642066726f6d206164647265737360601b6044820152606401610141565b6001600160a01b0383166101e55760405162461bcd60e51b8152602060048201526015602482015274496e76616c6964206173736574206164647265737360581b6044820152606401610141565b6000848152602081815260408083206001600160a01b038716845282528083208584529091529020541561024f5760405162461bcd60e51b8152602060048201526011602482015270416c726561647920696e20657363726f7760781b6044820152606401610141565b6000848152602081815260408083206001600160a01b03878116808652918452828520878652909352928190206001905551632142170760e11b81529083166004820152306024820152604481018490526342842e0e90606401600060405180830381600087803b1580156102c357600080fd5b505af11580156102d7573d6000803e3d6000fd5b5050604080518781526001600160a01b03871660208201529081018590527fe5b3b2e6a14bdb4daefb9a25c670401ad90ca7d6d7b6ff77cfa23cd72da8453c925060600190505b60405180910390a150505050565b6001546001600160a01b031633146103735760405162461bcd60e51b815260206004820152600a6024820152691b9bdd081b585c9ad95d60b21b6044820152606401610141565b6000848152602081815260408083206001600160a01b038716845282528083208584529091529020546001146103df5760405162461bcd60e51b81526020600482015260116024820152704e6f20657363726f772062616c616e636560781b6044820152606401610141565b6000848152602081815260408083206001600160a01b038781168086529184528285208786529093528184209390935551632142170760e11b81523060048201529083166024820152604481018490526342842e0e90606401600060405180830381600087803b15801561045257600080fd5b505af1158015610466573d6000803e3d6000fd5b5050604080518781526001600160a01b03808816602083015291810186905290841660608201527f3a151f5deff5603a81d38e015810faabee42ed28d25d5c10e94aadd91260dd4c9250608001905061031e565b7ff0c57e16840df040f15088dc2f81fe391c3923bec73e23a9662efc9c229c6a008054600160401b810460ff16159067ffffffffffffffff166000811580156105005750825b905060008267ffffffffffffffff16600114801561051d5750303b155b90508115801561052b575080155b156105495760405163f92ee8a960e01b815260040160405180910390fd5b845467ffffffffffffffff19166001178555831561057357845460ff60401b1916600160401b1785555b6001600160a01b0386166105c95760405162461bcd60e51b815260206004820152601b60248201527f496e76616c6964206d61726b6574706c616365206164647265737300000000006044820152606401610141565b6105d161063a565b600180546001600160a01b0319166001600160a01b038816179055831561063257845460ff60401b19168555604051600181527fc7f505b2f371ae2175ee4913f4499e1f2633a7b5936321eed1cdaeb6115181d29060200160405180910390a15b505050505050565b610642610644565b565b7ff0c57e16840df040f15088dc2f81fe391c3923bec73e23a9662efc9c229c6a0054600160401b900460ff1661064257604051631afcd79f60e31b815260040160405180910390fd5b80356001600160a01b03811681146106a457600080fd5b919050565b634e487b7160e01b600052604160045260246000fd5b600080600080608085870312156106d557600080fd5b6106de8561068d565b93506106ec6020860161068d565b925060408501359150606085013567ffffffffffffffff8082111561071057600080fd5b818701915087601f83011261072457600080fd5b813581811115610736576107366106a9565b604051601f8201601f19908116603f0116810190838211818310171561075e5761075e6106a9565b816040528281528a602084870101111561077757600080fd5b82602086016020830137600060208483010152809550505050505092959194509250565b600080600080608085870312156107b157600080fd5b843593506107c16020860161068d565b9250604085013591506107d66060860161068d565b905092959194509250565b6000602082840312156107f357600080fd5b6107fc8261068d565b939250505056fea26469706673582212206b034afa198c71c4a1aef9b88910760ffc7e87c96cac5fa6af9afb7cdb42f60b64736f6c63430008180033",
  "linkReferences": {},
  "deployedLinkReferences": {}
}