{
  "_format": "hh-sol-artifact-1",
  "contractName": "LoanMarketplace",
  "sourceName": "contracts/LoanMarketplace.sol",
  "abi": [
    {
      "inputs": [
        {
          "internalType": "address",
          "name": "_paymentToken",
          "type": "address"
        },
        {
          "internalType": "address",
          "name": "_priceOracle",
          "type": "address"
        },
        {
          "internalType": "address",
          "name": "factory",
          "type": "address"
        }
      ],
      "stateMutability": "nonpayable",
      "type": "constructor"
    },
    {
      "inputs": [],
      "name": "MathOverflowedMulDiv",
      "type": "error"
    },
    {
      "anonymous": false,
      "inputs": [
        {
          "indexed": false,
          "internalType": "uint256",
          "name": "listingId",
          "type": "uint256"
        },
        {
          "indexed": false,
          "internalType": "address",
          "name": "borrower",
          "type": "address"
        },
        {
          "indexed": false,
          "internalType": "address",
          "name": "assetContract",
          "type": "address"
        },
        {
          "indexed": false,
          "internalType": "uint256",
          "name": "assetTokenId",
          "type": "uint256"
        },
        {
          "indexed": false,
          "internalType": "uint256",
          "name": "loanAmount",
          "type": "uint256"
        },
        {
          "indexed": false,
          "internalType": "uint256",
          "name": "repayAmount",
          "type": "uint256"
        },
        {
          "indexed": false,
          "internalType": "uint256",
          "name": "loanDuration",
          "type": "uint256"
        },
        {
          "indexed": false,
          "internalType": "uint256",
          "name": "maxLTV",
          "type": "uint256"
        }
      ],
      "name": "ListingCreated",
      "type": "event"
    },
    {
      "anonymous": false,
      "inputs": [
        {
          "indexed": false,
          "internalType": "uint256",
          "name": "loanId",
          "type": "uint256"
        },
        {
          "indexed": false,
          "internalType": "uint256",
          "name": "offerId",
          "type": "uint256"
        }
      ],
      "name": "LoanCreated",
      "type": "event"
    },
    {
      "anonymous": false,
      "inputs": [
        {
          "indexed": false,
          "internalType": "uint256",
          "name": "loanId",
          "type": "uint256"
        }
      ],
      "name": "LoanLTVDefault",
      "type": "event"
    },
    {
      "anonymous": false,
      "inputs": [
        {
          "indexed": false,
          "internalType": "uint256",
          "name": "loanId",
          "type": "uint256"
        }
      ],
      "name": "LoanLiquidated",
      "type": "event"
    },
    {
      "anonymous": false,
      "inputs": [
        {
          "indexed": false,
          "internalType": "address",
          "name": "loanMarketplace",
          "type": "address"
        }
      ],
      "name": "LoanMarketplaceCreated",
      "type": "event"
    },
    {
      "anonymous": false,
      "inputs": [
        {
          "indexed": false,
          "internalType": "uint256",
          "name": "loanId",
          "type": "uint256"
        }
      ],
      "name": "LoanRepaid",
      "type": "event"
    },
    {
      "anonymous": false,
      "inputs": [
        {
          "indexed": false,
          "internalType": "uint256",
          "name": "loanId",
          "type": "uint256"
        }
      ],
      "name": "LoanRepaymentDefaulted",
      "type": "event"
    },
    {
      "anonymous": false,
      "inputs": [
        {
          "indexed": false,
          "internalType": "uint256",
          "name": "offerId",
          "type": "uint256"
        },
        {
          "indexed": false,
          "internalType": "uint256",
          "name": "listingId",
          "type": "uint256"
        },
        {
          "indexed": false,
          "internalType": "address",
          "name": "lender",
          "type": "address"
        },
        {
          "indexed": false,
          "internalType": "address",
          "name": "borrower",
          "type": "address"
        },
        {
          "indexed": false,
          "internalType": "address",
          "name": "assetContract",
          "type": "address"
        },
        {
          "indexed": false,
          "internalType": "uint256",
          "name": "assetTokenId",
          "type": "uint256"
        },
        {
          "indexed": false,
          "internalType": "uint256",
          "name": "loanAmount",
          "type": "uint256"
        },
        {
          "indexed": false,
          "internalType": "uint256",
          "name": "repayAmount",
          "type": "uint256"
        },
        {
          "indexed": false,
          "internalType": "uint256",
          "name": "loanDuration",
          "type": "uint256"
        },
        {
          "indexed": false,
          "internalType": "uint256",
          "name": "maxLTV",
          "type": "uint256"
        }
      ],
      "name": "OfferCreated",
      "type": "event"
    },
    {
      "inputs": [],
      "name": "BIPS",
      "outputs": [
        {
          "internalType": "uint256",
          "name": "",
          "type": "uint256"
        }
      ],
      "stateMutability": "view",
      "type": "function"
    },
    {
      "inputs": [
        {
          "components": [
            {
              "internalType": "address",
              "name": "lender",
              "type": "address"
            },
            {
              "internalType": "address",
              "name": "borrower",
              "type": "address"
            },
            {
              "internalType": "address",
              "name": "assetContract",
              "type": "address"
            },
            {
              "internalType": "uint256",
              "name": "offerId",
              "type": "uint256"
            },
            {
              "internalType": "uint256",
              "name": "assetTokenId",
              "type": "uint256"
            },
            {
              "internalType": "uint256",
              "name": "loanAmount",
              "type": "uint256"
            },
            {
              "internalType": "uint256",
              "name": "repayAmount",
              "type": "uint256"
            },
            {
              "internalType": "uint256",
              "name": "loanDuration",
              "type": "uint256"
            },
            {
              "internalType": "uint256",
              "name": "maxLTV",
              "type": "uint256"
            }
          ],
          "internalType": "struct ILoanMarketplace.Offer",
          "name": "offer",
          "type": "tuple"
        }
      ],
      "name": "acceptOffer",
      "outputs": [
        {
          "internalType": "uint256",
          "name": "loanId",
          "type": "uint256"
        }
      ],
      "stateMutability": "nonpayable",
      "type": "function"
    },
    {
      "inputs": [
        {
          "internalType": "uint256",
          "name": "loanId",
          "type": "uint256"
        }
      ],
      "name": "checkForDefault",
      "outputs": [],
      "stateMutability": "nonpayable",
      "type": "function"
    },
    {
      "inputs": [
        {
          "internalType": "uint256",
          "name": "loanId",
          "type": "uint256"
        }
      ],
      "name": "checkForLTV",
      "outputs": [],
      "stateMutability": "nonpayable",
      "type": "function"
    },
    {
      "inputs": [
        {
          "components": [
            {
              "internalType": "address",
              "name": "borrower",
              "type": "address"
            },
            {
              "internalType": "address",
              "name": "assetContract",
              "type": "address"
            },
            {
              "internalType": "uint256",
              "name": "assetTokenId",
              "type": "uint256"
            },
            {
              "internalType": "uint256",
              "name": "loanAmount",
              "type": "uint256"
            },
            {
              "internalType": "uint256",
              "name": "repayAmount",
              "type": "uint256"
            },
            {
              "internalType": "uint256",
              "name": "loanDuration",
              "type": "uint256"
            },
            {
              "internalType": "uint256",
              "name": "maxLTV",
              "type": "uint256"
            }
          ],
          "internalType": "struct ILoanMarketplace.Listing",
          "name": "listing",
          "type": "tuple"
        }
      ],
      "name": "createListing",
      "outputs": [
        {
          "internalType": "uint256",
          "name": "listingId",
          "type": "uint256"
        }
      ],
      "stateMutability": "nonpayable",
      "type": "function"
    },
    {
      "inputs": [],
      "name": "escrow",
      "outputs": [
        {
          "internalType": "contract IEscrow",
          "name": "",
          "type": "address"
        }
      ],
      "stateMutability": "view",
      "type": "function"
    },
    {
      "inputs": [],
      "name": "lastListingId",
      "outputs": [
        {
          "internalType": "uint256",
          "name": "",
          "type": "uint256"
        }
      ],
      "stateMutability": "view",
      "type": "function"
    },
    {
      "inputs": [],
      "name": "lastLoanId",
      "outputs": [
        {
          "internalType": "uint256",
          "name": "",
          "type": "uint256"
        }
      ],
      "stateMutability": "view",
      "type": "function"
    },
    {
      "inputs": [],
      "name": "lastOfferId",
      "outputs": [
        {
          "internalType": "uint256",
          "name": "",
          "type": "uint256"
        }
      ],
      "stateMutability": "view",
      "type": "function"
    },
    {
      "inputs": [
        {
          "internalType": "uint256",
          "name": "loanId",
          "type": "uint256"
        }
      ],
      "name": "liquidate",
      "outputs": [],
      "stateMutability": "nonpayable",
      "type": "function"
    },
    {
      "inputs": [
        {
          "internalType": "uint256",
          "name": "",
          "type": "uint256"
        }
      ],
      "name": "listings",
      "outputs": [
        {
          "internalType": "bytes32",
          "name": "",
          "type": "bytes32"
        }
      ],
      "stateMutability": "view",
      "type": "function"
    },
    {
      "inputs": [
        {
          "internalType": "uint256",
          "name": "",
          "type": "uint256"
        }
      ],
      "name": "loans",
      "outputs": [
        {
          "internalType": "address",
          "name": "lender",
          "type": "address"
        },
        {
          "internalType": "address",
          "name": "borrower",
          "type": "address"
        },
        {
          "internalType": "address",
          "name": "assetContract",
          "type": "address"
        },
        {
          "internalType": "uint256",
          "name": "assetTokenId",
          "type": "uint256"
        },
        {
          "internalType": "uint256",
          "name": "loanAmount",
          "type": "uint256"
        },
        {
          "internalType": "uint256",
          "name": "repayAmount",
          "type": "uint256"
        },
        {
          "internalType": "uint256",
          "name": "maxLTV",
          "type": "uint256"
        },
        {
          "internalType": "uint256",
          "name": "loanStartTime",
          "type": "uint256"
        },
        {
          "internalType": "uint256",
          "name": "loanEndTime",
          "type": "uint256"
        },
        {
          "internalType": "enum ILoanMarketplace.LoanStatus",
          "name": "status",
          "type": "uint8"
        }
      ],
      "stateMutability": "view",
      "type": "function"
    },
    {
      "inputs": [
        {
          "components": [
            {
              "internalType": "address",
              "name": "lender",
              "type": "address"
            },
            {
              "internalType": "uint256",
              "name": "listingId",
              "type": "uint256"
            },
            {
              "internalType": "uint256",
              "name": "loanAmount",
              "type": "uint256"
            },
            {
              "internalType": "uint256",
              "name": "repayAmount",
              "type": "uint256"
            },
            {
              "internalType": "uint256",
              "name": "loanDuration",
              "type": "uint256"
            },
            {
              "internalType": "uint256",
              "name": "maxLTV",
              "type": "uint256"
            },
            {
              "components": [
                {
                  "internalType": "address",
                  "name": "borrower",
                  "type": "address"
                },
                {
                  "internalType": "address",
                  "name": "assetContract",
                  "type": "address"
                },
                {
                  "internalType": "uint256",
                  "name": "assetTokenId",
                  "type": "uint256"
                },
                {
                  "internalType": "uint256",
                  "name": "loanAmount",
                  "type": "uint256"
                },
                {
                  "internalType": "uint256",
                  "name": "repayAmount",
                  "type": "uint256"
                },
                {
                  "internalType": "uint256",
                  "name": "loanDuration",
                  "type": "uint256"
                },
                {
                  "internalType": "uint256",
                  "name": "maxLTV",
                  "type": "uint256"
                }
              ],
              "internalType": "struct ILoanMarketplace.Listing",
              "name": "listing",
              "type": "tuple"
            }
          ],
          "internalType": "struct ILoanMarketplace.OfferRequest",
          "name": "offerRequest",
          "type": "tuple"
        }
      ],
      "name": "makeOffer",
      "outputs": [
        {
          "internalType": "uint256",
          "name": "offerId",
          "type": "uint256"
        }
      ],
      "stateMutability": "nonpayable",
      "type": "function"
    },
    {
      "inputs": [
        {
          "internalType": "uint256",
          "name": "",
          "type": "uint256"
        }
      ],
      "name": "offers",
      "outputs": [
        {
          "internalType": "bytes32",
          "name": "",
          "type": "bytes32"
        }
      ],
      "stateMutability": "view",
      "type": "function"
    },
    {
      "inputs": [],
      "name": "paymentToken",
      "outputs": [
        {
          "internalType": "contract IERC20",
          "name": "",
          "type": "address"
        }
      ],
      "stateMutability": "view",
      "type": "function"
    },
    {
      "inputs": [],
      "name": "pool",
      "outputs": [
        {
          "internalType": "contract IPool",
          "name": "",
          "type": "address"
        }
      ],
      "stateMutability": "view",
      "type": "function"
    },
    {
      "inputs": [],
      "name": "priceOracle",
      "outputs": [
        {
          "internalType": "contract IPriceOracle",
          "name": "",
          "type": "address"
        }
      ],
      "stateMutability": "view",
      "type": "function"
    },
    {
      "inputs": [
        {
          "internalType": "uint256",
          "name": "loanId",
          "type": "uint256"
        }
      ],
      "name": "repay",
      "outputs": [],
      "stateMutability": "nonpayable",
      "type": "function"
    }
  ],
  "bytecode": "0x60806040523480156200001157600080fd5b506040516200218e3803806200218e8339810160408190526200003491620002d4565b6001600160a01b038316620000905760405162461bcd60e51b815260206004820152601d60248201527f496e76616c6964207061796d656e7420746f6b656e206164647265737300000060448201526064015b60405180910390fd5b6001600160a01b038216620000e85760405162461bcd60e51b815260206004820152601c60248201527f496e76616c6964207072696365206f7261636c65206164647265737300000000604482015260640162000087565b6001600160a01b038116620001405760405162461bcd60e51b815260206004820152601760248201527f496e76616c696420666163746f72792061646472657373000000000000000000604482015260640162000087565b600080546001600160a01b03199081166001600160a01b03868116918217909355600180549092168584161790915560405163b962bf1f60e01b815230600482015260248101919091529082169063b962bf1f906044016020604051808303816000875af1158015620001b7573d6000803e3d6000fd5b505050506040513d601f19601f82011682018060405250810190620001dd919062000328565b600280546001600160a01b0319166001600160a01b039283161790556040516309a4e8b960e31b815230600482015290821690634d2745c8906024016020604051808303816000875af115801562000239573d6000803e3d6000fd5b505050506040513d601f19601f820116820180604052508101906200025f919062000328565b600380546001600160a01b0319166001600160a01b03929092169190911790556040513081527fa3ce2338b0c26d4c3347bcbebb78bf8a93c83831a59ba4763d87a475a0b73ce89060200160405180910390a15050506200034f565b6001600160a01b0381168114620002d157600080fd5b50565b600080600060608486031215620002ea57600080fd5b8351620002f781620002bb565b60208501519093506200030a81620002bb565b60408501519092506200031d81620002bb565b809150509250925092565b6000602082840312156200033b57600080fd5b81516200034881620002bb565b9392505050565b611e2f806200035f6000396000f3fe608060405234801561001057600080fd5b50600436106101165760003560e01c80638a72ea6a116100a2578063de74e57b11610071578063de74e57b1461022e578063e1ec3c681461024e578063e2fdcc17146102d6578063f171afcc146102e9578063f7050031146102fc57600080fd5b80638a72ea6a146101d5578063919e90d1146101f5578063bdee685e14610208578063d9db8da61461021b57600080fd5b8063371fd8e6116100e9578063371fd8e614610192578063415f1240146101a7578063643268c9146101ba57806368be92b4146101c3578063872d082a146101cc57600080fd5b806316f0115b1461011b578063215257691461014b5780632630c12f1461016c5780633013ce291461017f575b600080fd5b60025461012e906001600160a01b031681565b6040516001600160a01b0390911681526020015b60405180910390f35b61015e610159366004611957565b610305565b604051908152602001610142565b60015461012e906001600160a01b031681565b60005461012e906001600160a01b031681565b6101a56101a03660046119e7565b61077e565b005b6101a56101b53660046119e7565b610a7f565b61015e60055481565b61015e60065481565b61015e60045481565b61015e6101e33660046119e7565b60086020526000908152604090205481565b61015e610203366004611a76565b610cd6565b6101a56102163660046119e7565b611071565b61015e610229366004611aeb565b6111f2565b61015e61023c3660046119e7565b60076020526000908152604090205481565b6102c061025c3660046119e7565b600960208190526000918252604090912080546001820154600283015460038401546004850154600586015460068701546007880154600889015498909901546001600160a01b039788169996881698979095169693959294919390929160ff168a565b6040516101429a99989796959493929190611b1d565b60035461012e906001600160a01b031681565b6101a56102f73660046119e7565b6115df565b61015e61271081565b60208101516000906001600160a01b031633146103695760405162461bcd60e51b815260206004820152601a60248201527f426f72726f776572206d75737420616363657074206f6666657200000000000060448201526064015b60405180910390fd5b60008260405160200161037c9190611b9d565b60405160208183030381529060405280519060200120905080600860008560600151815260200190815260200160002054146103f15760405162461bcd60e51b815260206004820152601460248201527313d999995c88191bd95cc81b9bdd08195e1a5cdd60621b6044820152606401610360565b60a0830151600254845160405163e3d670d760e01b81526001600160a01b03918216600482015291169063e3d670d790602401602060405180830381865afa158015610441573d6000803e3d6000fd5b505050506040513d601f19601f820116820180604052508101906104659190611c10565b10156104a85760405162461bcd60e51b8152602060048201526012602482015271496e73756666696369656e742066756e647360701b6044820152606401610360565b6104c083604001518461010001518560a00151611771565b6104dc5760405162461bcd60e51b815260040161036090611c29565b6006600081546104eb90611c76565b9190508190559150600060405180610140016040528085600001516001600160a01b0316815260200185602001516001600160a01b0316815260200185604001516001600160a01b03168152602001856080015181526020018560a0015181526020018560c00151815260200185610100015181526020014281526020018560e00151426105799190611c8f565b815260200160009052600084815260096020818152604092839020845181546001600160a01b03199081166001600160a01b0392831617835592860151600180840180548616928416929092179091559486015160028301805490941691161790915560608401516003808301919091556080850151600483015560a0850151600583015560c0850151600683015560e085015160078301556101008501516008830155610120850151928201805495965086959294909260ff191691849081111561064757610647611b07565b0217905550506002548251602084015160808501516040516317d5759960e31b81526001600160a01b039384166004820152918316602483015260448201529116915063beabacc890606401600060405180830381600087803b1580156106ad57600080fd5b505af11580156106c1573d6000803e3d6000fd5b5050600354604080850151606086015160208a015192516319375f0160e21b81526001600160a01b0390941695506364dd7c04945061070593899390600401611ca8565b600060405180830381600087803b15801561071f57600080fd5b505af1158015610733573d6000803e3d6000fd5b50505060608501516040805186815260208101929092527fd519079d288621cf582af73f2a663bb4eb7853b9e79ad70a2d367521c6b808839250015b60405180910390a15050919050565b6006548111156107a05760405162461bcd60e51b815260040161036090611ccf565b600081815260096020818152604080842081516101408101835281546001600160a01b0390811682526001830154811694820194909452600282015490931691830191909152600380820154606084015260048201546080840152600582015460a0840152600682015460c0840152600782015460e08401526008820154610100840152928101549192909161012084019160ff9091169081111561084757610847611b07565b600381111561085857610858611b07565b90525060208101519091506001600160a01b031633146108ba5760405162461bcd60e51b815260206004820152601860248201527f426f72726f776572206d757374207265706179206c6f616e00000000000000006044820152606401610360565b600081610120015160038111156108d3576108d3611b07565b146108f05760405162461bcd60e51b815260040161036090611cfc565b8060e001514210156109145760405162461bcd60e51b815260040161036090611d25565b8061010001514211156109395760405162461bcd60e51b815260040161036090611d25565b600082815260096020818152604092839020909101805460ff1916600117905560025490830151835160a085015193516317d5759960e31b81526001600160a01b03928316600482015290821660248201526044810193909352169063beabacc890606401600060405180830381600087803b1580156109b857600080fd5b505af11580156109cc573d6000803e3d6000fd5b505060035460408085015160608601516020870151925163bfb3fd5b60e01b81526001600160a01b03909416955063bfb3fd5b9450610a1093889390600401611ca8565b600060405180830381600087803b158015610a2a57600080fd5b505af1158015610a3e573d6000803e3d6000fd5b505050507f9a7851747cd7ffb3fe0a32caf3da48b31f27cebe131267051640f8b72fc4718682604051610a7391815260200190565b60405180910390a15050565b600654811115610aa15760405162461bcd60e51b815260040161036090611ccf565b600081815260096020818152604080842081516101408101835281546001600160a01b0390811682526001830154811694820194909452600282015490931691830191909152600380820154606084015260048201546080840152600582015460a0840152600682015460c0840152600782015460e08401526008820154610100840152928101549192909161012084019160ff90911690811115610b4857610b48611b07565b6003811115610b5957610b59611b07565b90525080519091506001600160a01b03163314610bb85760405162461bcd60e51b815260206004820152601a60248201527f4c656e646572206d757374206c6971756964617465206c6f616e0000000000006044820152606401610360565b60028161012001516003811115610bd157610bd1611b07565b14610c165760405162461bcd60e51b8152602060048201526015602482015274131bd85b881a185cdb89dd08191959985d5b1d1959605a1b6044820152606401610360565b60008281526009602081905260409182902001805460ff19166003908117909155548282015160608401518451935163bfb3fd5b60e01b81526001600160a01b039093169363bfb3fd5b93610c7393889390929091600401611ca8565b600060405180830381600087803b158015610c8d57600080fd5b505af1158015610ca1573d6000803e3d6000fd5b505050507faf91ffe368225045d42f7c2b4b90feb438133ac1e375e73bc9066652b70a1d7782604051610a7391815260200190565b80516000906001600160a01b03163314610d325760405162461bcd60e51b815260206004820152601860248201527f4c656e646572206d75737420637265617465206f6666657200000000000000006044820152606401610360565b60008260c00151604051602001610d499190611d4d565b6040516020818303038152906040528051906020012090508060076000856020015181526020019081526020016000205414610d975760405162461bcd60e51b815260040161036090611ccf565b60c08301515183516001600160a01b03918216911603610df95760405162461bcd60e51b815260206004820152601960248201527f4c656e6465722063616e6e6f7420626520626f72726f776572000000000000006044820152606401610360565b6040838101516002548551925163e3d670d760e01b81526001600160a01b0393841660048201529192169063e3d670d790602401602060405180830381865afa158015610e4a573d6000803e3d6000fd5b505050506040513d601f19601f82011682018060405250810190610e6e9190611c10565b1015610eb15760405162461bcd60e51b8152602060048201526012602482015271496e73756666696369656e742066756e647360701b6044820152606401610360565b610ecc8360c00151602001518460a001518560400151611771565b610ee85760405162461bcd60e51b815260040161036090611c29565b600560008154610ef790611c76565b9190508190559150600060405180610120016040528085600001516001600160a01b031681526020018560c00151600001516001600160a01b031681526020018560c00151602001516001600160a01b031681526020018481526020018560c001516040015181526020018560400151815260200185606001518152602001856080015181526020018560a00151815250905080604051602001610f9b9190611b9d565b60408051601f198184030181528282528051602091820120600087815260088352839020558681015184519185015192850151608086015160a087015160c088015160e08901516101008a01517fd67dfb2b21b6b96cdb84d5e6a068b242c36ad08351820244314e187662dfa3019961076f998e9997909690959094909390929091998a5260208a01989098526001600160a01b0396871660408a0152948616606089015292909416608087015260a086015260c085019290925260e08401919091526101008301526101208201526101400190565b6006548111156110935760405162461bcd60e51b815260040161036090611ccf565b600081815260096020818152604080842081516101408101835281546001600160a01b0390811682526001830154811694820194909452600282015490931691830191909152600380820154606084015260048201546080840152600582015460a0840152600682015460c0840152600782015460e08401526008820154610100840152928101549192909161012084019160ff9091169081111561113a5761113a611b07565b600381111561114b5761114b611b07565b90525090506000816101200151600381111561116957611169611b07565b146111865760405162461bcd60e51b815260040161036090611cfc565b61119d81604001518260c001518360a00151611771565b6111ee57600082815260096020818152604092839020909101805460ff1916600217905590518381527fd8cb0bf240bbcf4fa595d0a0873ac05f9c643270e9dab6aa18eb522e5a9dd69d9101610a73565b5050565b80516000906001600160a01b0316331461124e5760405162461bcd60e51b815260206004820152601c60248201527f426f72726f776572206d75737420637265617465206c697374696e67000000006044820152606401610360565b6001546020830151604051634df48c7360e11b81526001600160a01b039182166004820152911690639be918e690602401602060405180830381865afa15801561129c573d6000803e3d6000fd5b505050506040513d601f19601f820116820180604052508101906112c09190611da4565b6113025760405162461bcd60e51b8152602060048201526013602482015272105cdcd95d081b9bdd081cdd5c1c1bdc9d1959606a1b6044820152606401610360565b81600001516001600160a01b031682602001516001600160a01b0316636352211e84604001516040518263ffffffff1660e01b815260040161134691815260200190565b602060405180830381865afa158015611363573d6000803e3d6000fd5b505050506040513d601f19601f820116820180604052508101906113879190611dc6565b6001600160a01b0316146113dd5760405162461bcd60e51b815260206004820152601b60248201527f426f72726f77657220646f6573206e6f74206f776e20617373657400000000006044820152606401610360565b6003546020830151604080850151905163020604bf60e21b815260048101919091526001600160a01b03928316929091169063081812fc90602401602060405180830381865afa158015611435573d6000803e3d6000fd5b505050506040513d601f19601f820116820180604052508101906114599190611dc6565b6001600160a01b0316146114bf5760405162461bcd60e51b815260206004820152602760248201527f436f6e7472616374206e6f7420617070726f76656420746f207472616e7366656044820152661c88185cdcd95d60ca1b6064820152608401610360565b6114d682602001518360c001518460600151611771565b6114f25760405162461bcd60e51b815260040161036090611c29565b60046000815461150190611c76565b91905081905590508160405160200161151a9190611d4d565b60408051601f19818403018152828252805160209182012060008581526007835283902055845190850151918501516060860151608087015160a088015160c08901517f909c9d2c265582c1497417c66016d06c829b8138a8f8f6caeb35246b7168a509976115d2978a9796909590949093909290919788526001600160a01b0396871660208901529490951660408701526060860192909252608085015260a084015260c083019190915260e08201526101000190565b60405180910390a1919050565b6006548111156116015760405162461bcd60e51b815260040161036090611ccf565b600081815260096020818152604080842081516101408101835281546001600160a01b0390811682526001830154811694820194909452600282015490931691830191909152600380820154606084015260048201546080840152600582015460a0840152600682015460c0840152600782015460e08401526008820154610100840152928101549192909161012084019160ff909116908111156116a8576116a8611b07565b60038111156116b9576116b9611b07565b9052509050600081610120015160038111156116d7576116d7611b07565b146116f45760405162461bcd60e51b815260040161036090611cfc565b8060e001514210156117185760405162461bcd60e51b815260040161036090611d25565b42816101000151116111ee57600082815260096020818152604092839020909101805460ff1916600217905590518381527ff6ba8200b10bc2f1d92966a1ff25b68c7433de4dce5ba964800b902f882865a29101610a73565b60015460405163b3596f0760e01b81526001600160a01b038581166004830152600092839291169063b3596f0790602401602060405180830381865afa1580156117bf573d6000803e3d6000fd5b505050506040513d601f19601f820116820180604052508101906117e39190611c10565b905060006117f48286612710611802565b8410925050505b9392505050565b60008383028160001985870982811083820303915050806000036118395783828161182f5761182f611de3565b04925050506117fb565b8084116118595760405163227bc15360e01b815260040160405180910390fd5b6000848688096000868103871696879004966002600389028118808a02820302808a02820302808a02820302808a02820302808a02820302808a02909103029181900381900460010186841190950394909402919094039290920491909117919091029150509392505050565b604051610120810167ffffffffffffffff811182821017156118f857634e487b7160e01b600052604160045260246000fd5b60405290565b60405160e0810167ffffffffffffffff811182821017156118f857634e487b7160e01b600052604160045260246000fd5b6001600160a01b038116811461194457600080fd5b50565b80356119528161192f565b919050565b6000610120828403121561196a57600080fd5b6119726118c6565b61197b83611947565b815261198960208401611947565b602082015261199a60408401611947565b6040820152606083013560608201526080830135608082015260a083013560a082015260c083013560c082015260e083013560e08201526101008084013581830152508091505092915050565b6000602082840312156119f957600080fd5b5035919050565b600060e08284031215611a1257600080fd5b611a1a6118fe565b90508135611a278161192f565b81526020820135611a378161192f565b8060208301525060408201356040820152606082013560608201526080820135608082015260a082013560a082015260c082013560c082015292915050565b60006101a08284031215611a8957600080fd5b611a916118fe565b8235611a9c8161192f565b808252506020830135602082015260408301356040820152606083013560608201526080830135608082015260a083013560a0820152611adf8460c08501611a00565b60c08201529392505050565b600060e08284031215611afd57600080fd5b6117fb8383611a00565b634e487b7160e01b600052602160045260246000fd5b6001600160a01b038b811682528a8116602083015289166040820152606081018890526080810187905260a0810186905260c0810185905260e081018490526101008101839052610140810160048310611b8757634e487b7160e01b600052602160045260246000fd5b826101208301529b9a5050505050505050505050565b81516001600160a01b0390811682526020808401518216908301526040808401519182169083015261012082019050606083015160608301526080830151608083015260a083015160a083015260c083015160c083015260e083015160e083015261010080840151818401525092915050565b600060208284031215611c2257600080fd5b5051919050565b60208082526017908201527f4c6f616e20616d6f756e742065786365656473204c5456000000000000000000604082015260600190565b634e487b7160e01b600052601160045260246000fd5b600060018201611c8857611c88611c60565b5060010190565b80820180821115611ca257611ca2611c60565b92915050565b9384526001600160a01b039283166020850152604084019190915216606082015260800190565b602080825260139082015272131bd85b88191bd95cc81b9bdd08195e1a5cdd606a1b604082015260600190565b6020808252600f908201526e4c6f616e206e6f742061637469766560881b604082015260600190565b6020808252600e908201526d131bd85b881a185cc8195b99195960921b604082015260600190565b81516001600160a01b0390811682526020808401519091169082015260408083015190820152606080830151908201526080808301519082015260a0828101519082015260c0918201519181019190915260e00190565b600060208284031215611db657600080fd5b815180151581146117fb57600080fd5b600060208284031215611dd857600080fd5b81516117fb8161192f565b634e487b7160e01b600052601260045260246000fdfea26469706673582212205c90ef6fa787205cf2d88eb9f26709439755fa11e074a00a9dab9406e993d3b964736f6c63430008180033",
  "linkReferences": {},
  "deployedLinkReferences": {}
}