{
  "_format": "hh-sol-artifact-1",
  "contractName": "Pool",
  "sourceName": "contracts/Pool.sol",
  "abi": [
    {
      "inputs": [],
      "stateMutability": "nonpayable",
      "type": "constructor"
    },
    {
      "inputs": [
        {
          "internalType": "address",
          "name": "target",
          "type": "address"
        }
      ],
      "name": "AddressEmptyCode",
      "type": "error"
    },
    {
      "inputs": [
        {
          "internalType": "address",
          "name": "account",
          "type": "address"
        }
      ],
      "name": "AddressInsufficientBalance",
      "type": "error"
    },
    {
      "inputs": [],
      "name": "FailedInnerCall",
      "type": "error"
    },
    {
      "inputs": [],
      "name": "InvalidInitialization",
      "type": "error"
    },
    {
      "inputs": [],
      "name": "NotInitializing",
      "type": "error"
    },
    {
      "inputs": [
        {
          "internalType": "address",
          "name": "token",
          "type": "address"
        }
      ],
      "name": "SafeERC20FailedOperation",
      "type": "error"
    },
    {
      "anonymous": false,
      "inputs": [
        {
          "indexed": true,
          "internalType": "address",
          "name": "account",
          "type": "address"
        },
        {
          "indexed": false,
          "internalType": "uint256",
          "name": "amount",
          "type": "uint256"
        }
      ],
      "name": "Deposit",
      "type": "event"
    },
    {
      "anonymous": false,
      "inputs": [
        {
          "indexed": false,
          "internalType": "uint64",
          "name": "version",
          "type": "uint64"
        }
      ],
      "name": "Initialized",
      "type": "event"
    },
    {
      "anonymous": false,
      "inputs": [
        {
          "indexed": false,
          "internalType": "address",
          "name": "market",
          "type": "address"
        },
        {
          "indexed": false,
          "internalType": "address",
          "name": "paymentToken",
          "type": "address"
        }
      ],
      "name": "PoolCreated",
      "type": "event"
    },
    {
      "anonymous": false,
      "inputs": [
        {
          "indexed": true,
          "internalType": "address",
          "name": "from",
          "type": "address"
        },
        {
          "indexed": true,
          "internalType": "address",
          "name": "to",
          "type": "address"
        },
        {
          "indexed": false,
          "internalType": "uint256",
          "name": "amount",
          "type": "uint256"
        }
      ],
      "name": "Transfer",
      "type": "event"
    },
    {
      "anonymous": false,
      "inputs": [
        {
          "indexed": true,
          "internalType": "address",
          "name": "account",
          "type": "address"
        },
        {
          "indexed": false,
          "internalType": "uint256",
          "name": "amount",
          "type": "uint256"
        }
      ],
      "name": "Withdraw",
      "type": "event"
    },
    {
      "inputs": [
        {
          "internalType": "address",
          "name": "account",
          "type": "address"
        }
      ],
      "name": "balance",
      "outputs": [
        {
          "internalType": "uint256",
          "name": "",
          "type": "uint256"
        }
      ],
      "stateMutability": "view",
      "type": "function"
    },
    {
      "inputs": [
        {
          "internalType": "uint256",
          "name": "amount",
          "type": "uint256"
        }
      ],
      "name": "deposit",
      "outputs": [],
      "stateMutability": "nonpayable",
      "type": "function"
    },
    {
      "inputs": [
        {
          "internalType": "address",
          "name": "_market",
          "type": "address"
        },
        {
          "internalType": "address",
          "name": "_paymentToken",
          "type": "address"
        }
      ],
      "name": "initialize",
      "outputs": [],
      "stateMutability": "nonpayable",
      "type": "function"
    },
    {
      "inputs": [],
      "name": "market",
      "outputs": [
        {
          "internalType": "address",
          "name": "",
          "type": "address"
        }
      ],
      "stateMutability": "view",
      "type": "function"
    },
    {
      "inputs": [],
      "name": "paymentToken",
      "outputs": [
        {
          "internalType": "address",
          "name": "",
          "type": "address"
        }
      ],
      "stateMutability": "view",
      "type": "function"
    },
    {
      "inputs": [
        {
          "internalType": "address",
          "name": "from",
          "type": "address"
        },
        {
          "internalType": "address",
          "name": "to",
          "type": "address"
        },
        {
          "internalType": "uint256",
          "name": "amount",
          "type": "uint256"
        }
      ],
      "name": "transfer",
      "outputs": [],
      "stateMutability": "nonpayable",
      "type": "function"
    },
    {
      "inputs": [
        {
          "internalType": "uint256",
          "name": "amount",
          "type": "uint256"
        }
      ],
      "name": "withdraw",
      "outputs": [],
      "stateMutability": "nonpayable",
      "type": "function"
    }
  ],
  "bytecode": "0x608060405234801561001057600080fd5b5061001961001e565b6100d0565b7ff0c57e16840df040f15088dc2f81fe391c3923bec73e23a9662efc9c229c6a00805468010000000000000000900460ff161561006e5760405163f92ee8a960e01b815260040160405180910390fd5b80546001600160401b03908116146100cd5780546001600160401b0319166001600160401b0390811782556040519081527fc7f505b2f371ae2175ee4913f4499e1f2633a7b5936321eed1cdaeb6115181d29060200160405180910390a15b50565b610a23806100df6000396000f3fe608060405234801561001057600080fd5b506004361061007d5760003560e01c806380f556051161005b57806380f55605146100da578063b6b55f25146100ed578063beabacc814610100578063e3d670d71461011357600080fd5b80632e1a7d4d146100825780633013ce2914610097578063485cc955146100c7575b600080fd5b6100956100903660046108a1565b61014a565b005b6001546100aa906001600160a01b031681565b6040516001600160a01b0390911681526020015b60405180910390f35b6100956100d53660046108d6565b610219565b6000546100aa906001600160a01b031681565b6100956100fb3660046108a1565b610430565b61009561010e366004610909565b6104ee565b61013c610121366004610945565b6001600160a01b031660009081526002602052604090205490565b6040519081526020016100be565b336000908152600260205260409020548111156101a55760405162461bcd60e51b8152602060048201526014602482015273496e73756666696369656e742062616c616e636560601b60448201526064015b60405180910390fd5b33600090815260026020526040812080548392906101c4908490610976565b90915550506001546101e0906001600160a01b03163383610660565b60405181815233907f884edad9ce6fa2440d8a54cc123490eb96d2768479d49ff9c7366125a9424364906020015b60405180910390a250565b7ff0c57e16840df040f15088dc2f81fe391c3923bec73e23a9662efc9c229c6a008054600160401b810460ff16159067ffffffffffffffff1660008115801561025f5750825b905060008267ffffffffffffffff16600114801561027c5750303b155b90508115801561028a575080155b156102a85760405163f92ee8a960e01b815260040160405180910390fd5b845467ffffffffffffffff1916600117855583156102d257845460ff60401b1916600160401b1785555b6001600160a01b0387166103215760405162461bcd60e51b8152602060048201526016602482015275496e76616c6964206d61726b6574206164647265737360501b604482015260640161019c565b6001600160a01b0386166103775760405162461bcd60e51b815260206004820152601d60248201527f496e76616c6964207061796d656e7420746f6b656e2061646472657373000000604482015260640161019c565b600080546001600160a01b038981166001600160a01b0319928316811790935560018054918a169190921681179091556040805192835260208301919091527f4f2ce4e40f623ca765fc0167a25cb7842ceaafb8d82d3dec26ca0d0e0d2d4896910160405180910390a1831561042757845460ff60401b19168555604051600181527fc7f505b2f371ae2175ee4913f4499e1f2633a7b5936321eed1cdaeb6115181d29060200160405180910390a15b50505050505050565b600081116104805760405162461bcd60e51b815260206004820152601d60248201527f416d6f756e74206d7573742062652067726561746572207468616e2030000000604482015260640161019c565b336000908152600260205260408120805483929061049f908490610989565b90915550506001546104bc906001600160a01b03163330846106c4565b60405181815233907fe1fffcc4923d04b559f4d29a8bfc6cda04eb5b0d3c460751c2402c5c5cc9109c9060200161020e565b6000546001600160a01b031633146105535760405162461bcd60e51b815260206004820152602260248201527f4f6e6c79206d61726b65742063616e2063616c6c20746869732066756e63746960448201526137b760f11b606482015260840161019c565b6001600160a01b0383166000908152600260205260409020548111156105b25760405162461bcd60e51b8152602060048201526014602482015273496e73756666696369656e742062616c616e636560601b604482015260640161019c565b6001600160a01b038316600090815260026020526040812080548392906105da908490610976565b90915550506001600160a01b03821660009081526002602052604081208054839290610607908490610989565b92505081905550816001600160a01b0316836001600160a01b03167fddf252ad1be2c89b69c2b068fc378daa952ba7f163c4a11628f55a4df523b3ef8360405161065391815260200190565b60405180910390a3505050565b6040516001600160a01b038381166024830152604482018390526106bf91859182169063a9059cbb906064015b604051602081830303815290604052915060e01b6020820180516001600160e01b038381831617835250505050610703565b505050565b6040516001600160a01b0384811660248301528381166044830152606482018390526106fd9186918216906323b872dd9060840161068d565b50505050565b60006107186001600160a01b03841683610766565b9050805160001415801561073d57508080602001905181019061073b919061099c565b155b156106bf57604051635274afe760e01b81526001600160a01b038416600482015260240161019c565b60606107748383600061077d565b90505b92915050565b6060814710156107a25760405163cd78605960e01b815230600482015260240161019c565b600080856001600160a01b031684866040516107be91906109be565b60006040518083038185875af1925050503d80600081146107fb576040519150601f19603f3d011682016040523d82523d6000602084013e610800565b606091505b509150915061081086838361081c565b925050505b9392505050565b6060826108315761082c82610878565b610815565b815115801561084857506001600160a01b0384163b155b1561087157604051639996b31560e01b81526001600160a01b038516600482015260240161019c565b5080610815565b8051156108885780518082602001fd5b604051630a12f52160e11b815260040160405180910390fd5b6000602082840312156108b357600080fd5b5035919050565b80356001600160a01b03811681146108d157600080fd5b919050565b600080604083850312156108e957600080fd5b6108f2836108ba565b9150610900602084016108ba565b90509250929050565b60008060006060848603121561091e57600080fd5b610927846108ba565b9250610935602085016108ba565b9150604084013590509250925092565b60006020828403121561095757600080fd5b610774826108ba565b634e487b7160e01b600052601160045260246000fd5b8181038181111561077757610777610960565b8082018082111561077757610777610960565b6000602082840312156109ae57600080fd5b8151801515811461081557600080fd5b6000825160005b818110156109df57602081860181015185830152016109c5565b50600092019182525091905056fea264697066735822122021a93781682b7e6f9e4edfd4ec18df9ffaa98787f5f89dd52701d8e446288b6264736f6c63430008180033",
  "linkReferences": {},
  "deployedLinkReferences": {}
}